S00D000068756237352E737265636C
S1130000F01A00202D010000290100002901000040
S113001000000000000000000000000000000000DC
S113002000000000000000000000000029010000A2
S11300300000000000000000290100002901000068
S11300402901000029010000D11100005110000015
S113005029010000290100002901000029010000F4
S113006029010000F91100002901000049120000D3
S113007029010000290100002901000029010000D4
S113008029010000290100002901000029010000C4
S113009029010000290100002901000029010000B4
S11300A029010000290100002901000029010000A4
S11300B029010000290100002901000010B5064CA7
S11300C02378002B07D1054B002B02D0044800E015
S11300D000BF0123237010BD0400002000000000B5
S11300E0401E0000084B10B5002B03D007490848F8
S11300F000E000BF07480368002B00D110BD064B89
S1130100002BFBD09847F9E700000000080000200E
S1130110401E0000401E00000000000010B5014B0E
S1130120984710BD41040000FEE7C0461249134839
S113013010B5814209D0124B984206D2C243D2185C
S11301409208013292000F4B98470F480F4B984288
S113015007D2C243D21892080132920000210C4BFC
S11301609847FF210B4B0C4A8B4393600B4B9847EA
S11301700B4B9847FEE7C046401E000000000020DD
S113018004000020A91D000004000020EC0A002047
S1130190BB1D00000000000000ED00E0611D000038
S11301A0B1180000F0B54021D6464F464646882394
S11301B0304AC0B5D15080232F4ADB005169C02793
S11301C00B4353618423994680234A46FF05DB038E
S11301D0BB502432904682234146284EDB059E5074
S11301E0D620274A01255A5004220124195C92463C
S11301F091431954195CA9432143C9B21954BB2131
S11302008C466246595CC7388143995480214A46DA
S11302100904B95042461B499E5099502F32995CAB
S113022090465246914342469954995CA9432143CE
S1130230C9B299546246995C0140995480210905D8
S1130240796011499E6299625B2152465E5C9643D5
S11302505E545A5CAA432243D2B25A543D22995C5A
S113026008409854094B98471CBC90469946A246AE
S1130270F0BDC046001C00400008004000000240E1
S1130280400002C0800002C0000802C03107000024
S1130290F0B58023C025C6460224ED055B0000B5F9
S11302A06B6082234821042001270126A446214AA9
S11302B0DB059A62204A64469A625A5C82435A5425
S11302C05A5C3030BA433243D2B25A540F22195CCA
S11302D091432143C9B219548021C9006961A960BD
S11302E0164916309962C021090699621C5C884639
S11302F0BC433443E4B21C5435246146185D904336
S11303000843C0B21855802000016861A8600C48F9
S1130310414698624B209962195CB9433143C9B292
S11303201954195D0A4020210A431A5504BC904609
S1130330F0BDC04600010240000002C000040040BD
S113034000080040F0B5DE4657464E464546802339
S1130350E0B5C0265B01F605736082234C210420BE
S1130360324ADB059A62324A81469A6292465A5C64
S1130370012782435A545A5C03388446824302203C
S1130380804636243A43D2B25A540F224046195D6D
S11303904D2591430143C9B21955802189017161E9
S11303A0B16024499962C021090699628B4661466D
S11303B0585D88433843C0B258552025185D5146CE
S11303C010402843C0B218558020C00170601A48FC
S11303D098624E20996249461C5C8C4361461C54C9
S11303E01C5C8C433C43E4B21C5437244146185DE6
S11303F090430843C0B21855802000027061B06079
S11304000E48594698624F2066469962195CB1437A
S11304103943C9B21954195D0A402A43D2B21A5554
S11304203CBC90469946A246AB46F0BD0010024043
S1130430000002C000200040004002400080004054
S1130440F8B5DE4657464E464546834BE0B59847D9
S1130450C022822301218148DB05D20551619160CC
S11304609862C0204024000698621D5D41268D4399
S11304701D5502255561A8469560794D43279D6217
S113048098629D5D8D439D55042555619560754D1C
S113049001369D6298629D5D8D439D550825724E7F
S11304A05561B24695609E62432698629E5D8E4376
S11304B0DE551026566196606C4E9E624426B44604
S11304C0674698629E5D8E43DE552026566196608F
S11304D0674E9E624526B446674698629E5D8E438B
S11304E0DE55644E546194609E624626B446674667
S11304F098629E5D8E43DE5580265F4FB60056613E
S113050096609F6249279862B946DF5D8F43BC4677
S11305104F466646DE5580267602566196608026F2
S1130520F6059E62B446554E9E625026B3469E5DC5
S113053037005E468F439F558026B602566196600B
S113054066469E624E4E9E625126B3469E5D3700BD
S11305505E468F439F558026F60256619660664636
S11305609E62484E9E625226B1469E5D37004E46BC
S11305708F439F555746423695510C3E9551B1468F
S113058020369F51B44698511B36B3469E5D3700C2
S11305905E468F439F558026F600B24698265746FE
S11305A097514E469751384EB246664657469F512C
S11305B098512236B3469E5D37005E468F439F5561
S11305C080263601B2469426574697514E46975197
S11305D02E4A914662464E469E509850CB201A5C55
S11305E08A431A542A4B984773698026B6001E43DF
S11305F04B465E61274B984727490200274B284802
S11306009847CC234322274E2749F450043BF25009
S11306109A464B464246DB69244813434A46D36113
S1130620234B9847234B9847D4234322F4505346F3
S1130630F2504B46DB69204A1D434B461F49DD619E
S11306401F4C20231F48A0471F4B98473CBC904693
S11306509946A246AB46F8BD150F000001000040C4
S11306600200004004000040080000401000004068
S1130670200000404000004000020040010000C093
S1130680020000C0040000C0000400400008004054
S1130690A5010000CD11000000240040710E0000EF
S11306A008020020001C004000040042C001002099
S11306B0FD0900009102000020000020000C00420F
S11306C0790C00006801002045030000EFF310835B
S11306D0036072B6BFF35F8F7047C046BFF35F8F8E
S11306E0036883F310887047F8B5012203250024BA
S11306F001230E4EFF2708E00132D4B2AC420FD8DA
S11307002B195B10DAB2022A0AD83B40DB00F1183D
S11307104968814205D0EFD3013AD5B2AC42EFD952
S1130720F8BDF358002BFBD09847F9E740000020B0
S11307300121002210B5064B494259601A60D96064
S11307409A6059611A610348034B984710BDC0462B
S113075040000020E9060000690F0000F0B5C6461D
S1130760324B00B55A68904215D0DA68904255D0A1
S11307705A69824254D0002908D01A68002A13D03A
S11307809A68002A4ED01A69002A4DD00D204042A2
S113079004BC9046F0BD0022D2009950002939D102
S11307A00021234B9847F3E70022D2009C18606095
S11307B0995059688C4688420CD261464D1C09D028
S11307C019681E008846270022CF22C641462160B0
S11307D061466160D9688C4699184E68B4450CD955
S11307E065466E1C09D09D681E00A8460836A0C93F
S11307F0A0C641462160614661609A1859695568EE
S11308008D4207D24D1C05D01D691033C0CAC0C328
S1130810256061600121064B9847B9E70122BBE7D7
S11308200222B9E70122C0E70222BEE7400000200D
S11308301910000010B50368984710BD030010B5E7
S11308404161C26100242C221021243B8461046292
S1130850995420380F39024B9847002010BDC046E8
S11308604116000010B58161002103004161C2619D
S113087001622C2220380400243B103199540F3992
S1130880034B984703492000034B9847002010BDB1
S113089069160000FF010000B916000070B50400DD
S11308A00B4B0E000021051F98470021094B200027
S11308B09847094B0021200098472C230022EA5432
S11308C0236B002B02D031002800984770BDC0462E
S11308D0411600006916000091160000036CC26BFB
S11308E010B5041F934200D210BD064B0021984757
S11308F02C230022E254236B002BF5D020009847D0
S1130900F2E7C0469116000070B5041FE36B0500C2
S1130910002B34D00279666C012A23D9721C76002C
S11309209E1962641B4B9847636C3080226C9A4218
S11309300BD9A26B002A28D0297901291AD95B0086
S1130940995A2800144B984770BD144B0021280075
S113095098472C230022E254236B002BF4D0200070
S11309609847F1E7721C62649E190A4B98473070ED
S1130970636CDBE7D15C2800074B9847E4E7054B41
S11309809847636C01336364D0E7E9882800024B1D
S11309909847D9E7C9160000B91600006916000087
S11309A070B503790500041F012B0CD9036C5A1C84
S11309B00264426B5B00995A0D4B9847626C236C3E
S11309C09A420BD070BD636C5A1C6264A26BD15CFA
S11309D0074B9847626C236C9A42F3D1002128009C
S11309E0044B984701212800034B9847EAE7C04687
S11309F0B9160000411600009116000070B5041DE0
S1130A00050041600D4B20009847002815DB0C4E73
S1130A100C4A00212000B0470B4A01212000B047B6
S1130A200A4A02212000B047094A03212000B047A6
S1130A300020084BAB62084B6B6270BD991200003A
S1130A40D9160000A109000009090000DD08000012
S1130A509D080000650800003D08000010B5043042
S1130A60014B984710BDC046B915000010B50029C8
S1130A7001D1026310BD4263531E9A410430D2B2C5
S1130A800321014B9847F5E7F11600002430086074
S1130A900020704710B50438C36A984710BDC0469B
S1130AA07047C04670B504000D000A4B00219847FA
S1130AB000212000084B984700212000074B98474D
S1130AC055220121201F835C8B4383542900836BAF
S1130AD0984770BD551600007D160000A51600004D
S1130AE0F0B5C6460C4B00B50500061F98474023D9
S1130AF09846A844C1B20400084F4046B8472B7931
S1130B00012B03D92104090E4046B847736B30000A
S1130B10984704BC9046F0BDD1160000E90E0000D1
S1130B2070B503790500041F4222012B1AD9A35A78
S1130B30591CA152E26B5B00995A0E4B9847422311
S1130B40E25A023BE35A9A420BD300210A4B280093
S1130B50984755220121A35C20008B43A354236BA7
S1130B60984770BDA35A591CA152826BD15C014BAA
S1130B709847E4E7C116000055160000F0B5C646D4
S1130B8000B5040082B0884616000025002A04D16E
S1130B90280002B004BC9046F0BD104B01A8270009
S1130BA098475522243FBB5CD90711D401210B433C
S1130BB0BB5401A80A4B98474346FB6342232000D9
S1130BC0FD52023BFE520121064B20389847DFE7D5
S1130BD001A8034B9847043DDAE7C046CD06000060
S1130BE0DD06000055160000F0B5CE46474680B538
S1130BF00C0083B0161E05D1002003B00CBC904637
S1130C009946F0BD24235B429846194B804420301A
S1130C10050098470028EFD043461B7A022B01D1E8
S1130C207600B6B2864214D8002C14D0002E0BD015
S1130C30A319994621000F4F4C1C2800B8472100E6
S1130C404C45F9D143461B7A7008022BD5D03000AD
S1130C50D3E70600E8E7002EF6D00024054F6B46E4
S1130C602800D91D0134B847A642F8D1EAE7C046A6
S1130C700D0F0000C50E000070B504000E004430D6
S1130C8011001A00154B9847002826DB251D31005A
S1130C902800134B984700281FDB124E124A0021EC
S1130CA02800B047114A01212800B047104A022108
S1130CB02800B0470F4A03212800B0475522FC21E1
S1130CC00020A35C0B40A3540B4BA363E362236398
S1130CD063630A4BA3620A4B636270BDAD0E0000EE
S1130CE029140000E5160000210B0000E10A0000B1
S1130CF0950A0000A50A0000A10A0000E90B000003
S1130D007D0B000070B55525435D04009B0700D59D
S1130D1070BD061D3000084B98470028F8D1022208
S1130D20635D0121134363553000044B984701214F
S1130D303000034B9847EBE7FD1500007D160000DB
S1130D40A516000010B5131E16D0012912D00029D3
S1130D500ED002290AD0032907D18363531E9A4176
S1130D600430D2B20321054B984710BDC362FCE79F
S1130D700363FAE74363F8E7014BE6E7091700006A
S1130D80A10A00002430086000207047F0B54546F1
S1130D904E46DE465746E0B5036983B05D1C98466F
S1130DA0037E060044690561DB0746D4037E9B0786
S1130DB043D4002C45D06368A268EB1A9A4240D809
S1130DC014239946274B81449A46274B9B460BE0B4
S1130DD07769E36820009847002F32D07B68BA68AF
S1130DE03C00EB1A93422CD34846D047237C012B7A
S1130DF0EED177696560002F2FD03800BC46A26819
S1130E0000214746019408E043445B1B9A420DD9F4
S1130E1003680100002B1BD0180084684368A046B7
S1130E209D42F1D24344DB1B9A42F1D8B84667464F
S1130E30019C874211D008000CE00222337E134348
S1130E40337603B03CBC90469946A246AB46F0BD0F
S1130E50B846019C2100D847BAE721004846034B15
S1130E609847B5E79D0E0000950E00008D0E00001A
S1130E7010B5044B0400984700232361024B002063
S1130E80236010BD811100008D0D000003680B600C
S1130E900160704703680B60016070470368002BB2
S1130EA001D01A68026018007047C046531E1A40E9
S1130EB005D143608260C2600160002070470D204C
S1130EC04042FBE78368C2689A4209D042681340F3
S1130ED00268D35C0B708368013383600020704721
S1130EE00A204042FBE7C046C268436813400268D8
S1130EF0D154C368826841689A1A8A4201D9591A3E
S1130F0081600133C36000207047C046C3688068B5
S1130F10181A7047042110B5084A53680B435360EC
S1130F20074B9847074B9847074B9847074B9847F9
S1130F30FF20074B9847074B984710BD00400041DE
S1130F402D11000045110000211100007D11000049
S1130F5001110000590F000090220221D2051378DC
S1130F608B4313707047C046284A03215368DB073C
S1130F702FD50121254A53681942FCD11021137839
S1130F808B431370214A0D3953680B40FCD15370C5
S1130F909360936188235B05D361C02302219B0581
S1130FA0136213780B431370032218494B681A42D7
S1130FB0FCD108228021164B5A50BFF34F8FBFF348
S1130FC06F8F0131FF315A501A60124B18600020A4
S1130FD0704753681942FCD1022311780B420CD09C
S1130FE0117899431170032208494B681A42FCD1C5
S1130FF0022206494B681A42FCD101230321034A09
S1131000137053681942FCD1B3E7C046002800406E
S113101000E100E058000020362806D0372810D020
S11310201B2810D00120404270474022002904D1DF
S1131030064B0020DA605A61F6E7044B00201A617F
S1131040F2E78022F2E780221202EFE70028004054
S1131050F0B5C64600B5264B82B05A690192019A92
S11310605A61019B002B39D0224B01279846224D0F
S11310707F420198C047013844B2631C26D007213F
S113108000260320032307E00132D6B286420CD89F
S113109083195910C900495D5B10DAB2A14221D00D
S11310A0F2DB013AD0B2B042F2D27B1C03D0134B34
S11310B038001B6898470122A240019B9343019387
S11310C00198C047013844B2631CD8D1084B5A690F
S11310D00192019A5A61019B002BCAD102B004BC4F
S11310E09046F0BD044ADB00D3185F68DDE7C046D4
S11310F0002800404D1A0000CC1D000058000020BC
S1131100C30706D5034A044B0449136253680B42D0
S1131110FCD17047001C004006010100FD070000DF
S11311200122014B1A71704700080040F821044B5A
S11311304901DA690A40DA6101221A617047C0463E
S11311400014004002230C4A042113750023537534
S113115093691942FCD10421074A93691942FCD1CD
S1131160072310219375044AD3681942FCD08021C7
S1131170137D0B4313757047001000407047C04641
S113118001230F4AC1600B800B691342FCD1012279
S11311900B691A42FCD10B4B094A0B800B691342B1
S11311A0FCD148232022FF330B620B691A42FCD185
S11311B080235B004B81044B186000207047C046BD
S11311C0038000008080FFFF5C0000200020704747
S11311D0084B10B51C68E3689A89D20508D52268C3
S11311E0002A02D020009047E368802252009A81AE
S11311F010BDC0465C000020124B10B51868026890
S1131200117E937D0B40D90709D4042119420DD1D5
S113121002241C4206D15BB2002B0ADB10BD83689A
S11312209847FBE7147603699847F7E7C36898473C
S1131230F4E7802351831321137643694942984785
S1131240ECE7C04660000020124B10B558680268F5
S1131250117E937D0B40D90709D4042119420DD185
S113126002241C4206D15BB2002B0ADB10BD83684A
S11312709847FBE7147603699847F7E7C3689847EC
S1131280F4E7802351831321137643694942984735
S1131290ECE7C04660000020F0B5D6464F4646460F
S11312A0584BC0B5CC18A40AE4B2002C09D0022CC7
S11312B000D1A0E00D2040421CBC90469946A246B5
S11312C0F0BD0D230C269C4600254F4FCB6903220D
S11312D0DB0744D50122CB691A42FCD10160032209
S11312E00F60082E54D0CB691A42FCD18023072208
S11312F09B024B60CB691340FCD1444A2E019146BA
S113130077194F4424373F780F733027CB55012387
S113131075194D44263503716B782A781B021343E3
S1131320C3803B4B994263D03A4B99425DD0002332
S113133009340361C3608360E3B2220653D41F22DD
S11313401A40012380219340334A5350BFF34F8FF7
S1131350BFF36F8F0131FF3153500020ACE7CB69ED
S11313601A42FCD102230A6813420AD00A689A433B
S11313700A600322CB691A42FCD10222CB691A42C9
S1131380FCD1634603220B60CB691A42FCD1A1E76E
S1131390CB691A42FCD10722204B4B60CB69134026
S11313A0FCD11A4A2E0191462022924677194F44C5
S11313B0BA4452461778B84657783F02BC46474667
S11313C0624617435246927812041743BC4652466B
S11313D0D77862463F0617434F623027CB55CB6917
S11313E0002BFCD193E7002066E70D4B58609EE785
S11313F00B4B18609BE709230A4F9C4608260125DE
S113140064E7C04600FCFFBD0C000100E41D0000C1
S113141000040042000C004200E100E0400202002F
S11314206000002008000200F0B5D6464F4646464C
S1131430584BC0B5CC18A40AE4B2002C09D0022C35
S113144000D1A0E00D2040421CBC90469946A24623
S1131450F0BD0D230C269C4600254F4FCB6903227B
S1131460DB0744D50122CB691A42FCD10160032277
S11314700F60082E54D0CB691A42FCD18023072276
S11314809B024B60CB691340FCD1444A2E01914628
S113149077194F4424373F780F733027CB550123F6
S11314A075194D44263503716B782A781B02134352
S11314B0C3803B4B994263D03A4B99425DD00023A1
S11314C009340361C3608360E3B2220653D41F224C
S11314D01A40012380219340334A5350BFF34F8F66
S11314E0BFF36F8F0131FF3153500020ACE7CB695C
S11314F01A42FCD102230A6813420AD00A689A43AA
S11315000A600322CB691A42FCD10222CB691A4237
S1131510FCD1634603220B60CB691A42FCD1A1E7DC
S1131520CB691A42FCD10722204B4B60CB69134094
S1131530FCD11A4A2E0191462022924677194F4433
S1131540BA4452461778B84657783F02BC464746D5
S1131550624617435246927812041743BC465246D9
S1131560D77862463F0617434F623027CB55CB6985
S1131570002BFCD193E7002066E70D4B58609EE7F3
S11315800B4B18609BE709230A4F9C46082601254C
S113159064E7C04600FCFFBD0C000100E41D000030
S11315A000040042000C004200E100E0400202009E
S11315B060000020080002000368DA69D2070FD532
S11315C00C4A944663449B0A0933D9B21B0605D4DA
S11315D01F2201230A409340074A136000207047EA
S11315E002211A680A431A600131DA691142FCD1F6
S11315F0E6E7C04600FCFFBD00E100E00368DA69ED
S1131600D2070FD50C4A944663449B0A0933D9B2D6
S11316101B0605D41F2201230A409340074A136086
S11316200020704702211A680A431A600131DA69FE
S11316301142FCD1E6E7C04600FCFFBD00E100E03A
S113164003680122002902D11A75002070479A7597
S1131650FBE7C04603680122002902D11A75002065
S113166070479A75FBE7C04603680422002902D13B
S11316701A75002070479A75FBE7C0460368042278
S1131680002902D11A75002070479A75FBE7C046FD
S113169003680222002902D11A75002070479A7546
S11316A0FBE7C04603680222002902D11A75002014
S11316B070479A75FBE7C04603680020996270473B
S11316C003680020996270470368986A80B2704783
S11316D00368986A80B270478900401882600020CD
S11316E07047C04689004018826000207047C04699
S11316F0032900D070470368002A02D080229A751B
S1131700F8E780321A75F5E7032900D070470368BB
S1131710002A02D080229A75F8E780321A75F5E71C
S11317207047C0468022C0239200DB059A6170474F
S1131730F8B5114C114F124E210038004022B04729
S1131740104B21001D8840312A002000403AB04748
S113175020004038281840220B49B0478022C0237B
S11317609200DB055A61094BC13A39001868FF3A07
S1131770074B9847F8BDC046AC0200202802002061
S1131780A91D0000000000206C020020240200209B
S11317903508000010B54022064C00210648A04739
S11317A0402200210548A04780220021120104485C
S11317B0A04710BDBB1D00006C02002028020020C1
S11317C0AC02002010B582B001A80A4B9847C02390
S11317D08222DB05D2051C68126A1B6901A85340EA
S11317E01C40054B544098472401044BE40F9C7063
S11317F002B010BDCD060000DD0600000000002090
S1131800254BF0B545469846C0234E46DE4657461E
S11318101B013F249946E0B5204D83B001239B462C
S1131820019394239A46019BC022002740219C46A1
S1131830D205604643461B5C8020DB00DB199BB26B
S11318400001181880B25461EE5C40339BB296617B
S1131850916151619842F6D8114B9B78002B09D0C5
S113186098234846D050E023DB0253613B04936144
S11318705346D0500137082FDBD15F460137FBB206
S1131880019318009B46074B98470022064B074ECE
S1131890B0470028C5D1C1E768000020AC02002091
S11318A000000020611C000000E06F40111A0000DD
S11318B0F8B5CE464746304B80B5984703220023FF
S11318C02E4990460232944602320B7004200224C0
S11318D0082710262025914605E022001A4000D052
S11318E001224A700131184200D00C701F4201D00D
S11318F042460A701E4200D008701D4201D0624662
S11319000A705A0601D506220A705AB2002A2FDB41
S11319100133DBB2FF2BE0D1194C1A493620A04722
S113192019493720A04719491B20A047184C1949C9
S11319302000194B9847194A00212000184B98475A
S11319402000184B9847184C184A40231849200087
S1131950184DA8471849194B20009847184A0221E6
S11319602000184B9847184B20009847174B98476E
S11319704A460A70CCE7C0461D01000068000020FA
S11319805D0700009517000021170000C51700002F
S1131990C0010020240200208D0A00002517000049
S11319A06D0A00005D0A0000680100206C0200203E
S11319B0000C0042790C000068020020850D000034
S11319C031170000450D0000050D0000011800004E
S11319D08446101C62468C46191C634600E0C046CF
S11319E01FB500F0DBF8002801D40021C8421FBD58
S11319F010B500F035F84042013010BD10B500F0CC
S1131A00CDF8002801DB002010BD012010BDC04628
S1131A1010B500F0C3F8002801DD002010BD01203E
S1131A2010BDC04610B500F055F8002801DC0020B8
S1131A3010BD012010BDC04610B500F04BF80028C1
S1131A4001DA002010BD012010BDC04610B50023EE
S1131A50002802D000F064F9431C180010BDC046F1
S1131A60F0B54F464646D6465C00C0B51F03DB0FB3
S1131A709A46174B0E034D0084468046360B6D0D77
S1131A80C90F91463F0B640D01209D4208D09C4232
S1131A9001D0A5420BD01CBC90469946A246F0BD8D
S1131AA063463343F7D1AC42F5D13A43F3D1012035
S1131AB0BE42F0D1C845EED1514507D0002DEAD140
S1131AC063461E433000461EB041E4E70020E2E7CF
S1131AD0FF070000F0B54546DE4657464E46E0B5E2
S1131AE01F033D0B2C4F0E034C00AB465D00844698
S1131AF0360B640DC90F90466D0DDB0FBC422AD026
S1131B00254FBD422DD0002C0FD130430700814614
S1131B1078427841C0B2002D17D15F463A4314D1C0
S1131B204B460020002B0AD006E0002D02D1584677
S1131B30024301D0994218D04842012108433CBCD9
S1131B4090469946A246AB46F0BD0028F2D001204B
S1131B50013B1843F3E737000743D1D0022040424A
S1131B60EDE75F461743CED0F8E7AC42E4DC03DA96
S1131B70481E01210843E2E75E45DDD806D0002077
S1131B805E45DCD20123481E1843D8E7C445D3D8A8
S1131B900020C445F6D3D2E7FF070000F0B54E4657
S1131BA04546DE4657465C00E0B51F03DB0F994609
S1131BB02A4B0E034D00C90F8446360B6D0D8B4620
S1131BC090463F0B640D9D4220D0244B9C4222D072
S1131BD0002D12D1304343424341DBB2002C1FD0CD
S1131BE0002B0CD04B460120013B034318003CBCA6
S1131BF090469946A246AB46F0BD002C16D0CB4584
S1131C0017D05B46594201230B43EFE7310002230F
S1131C100143EBD1D9E7390002231143E6D1D7E7D9
S1131C203A43DDD100230028E0D0EAE73A43E6D185
S1131C30E7E7A542E5DC05DBBE42E2D807D0002396
S1131C40BE42D3D25946012301390B43CEE7C445E2
S1131C50D7D80023C445F5D3C8E7C046FF07000022
S1131C6070B5002830D0C317C4185C40C50F2000DD
S1131C7000F038F8174B184A1B1AD21A1F2A18DD1D
S1131C80164AD21A9440002224035B05240B5B0DF0
S1131C900021100024030A0D240B12052243104CCA
S1131CA01B05224013435B00ED075B082B4319001F
S1131CB070BD210091400A000B21081AC4405B0545
S1131CC02403240B5B0DE3E70025002300240022FA
S1131CD0DEE7C0461E0400003304000013040000C5
S1131CE0FFFF0F801C2101231B04984201D3000C29
S1131CF010391B0A984201D3000A08391B0998427B
S1131D0001D30009043902A2105C40187047C04690
S1131D1004030202010101010000000000000000B0
S1131D20414208401C2101231B04984201D3000CAA
S1131D3010391B0A984201D3000A08391B0998423A
S1131D4001D30009043902A2105C401A7047C0464E
S1131D501B1C1D1D1E1E1E1E1F1F1F1F1F1F1F1F9E
S1131D6070B500260C4D0D4C641BA410A64209D17D
S1131D70002600F055F80A4D0A4C641BA410A64234
S1131D8005D170BDB300EB5898470136EEE7B300B8
S1131D90EB5898470136F2E72C1E00002C1E000079
S1131DA02C1E0000301E0000002310B59A4200D102
S1131DB010BDCC5CC4540133F8E70300821893428D
S1131DC000D1704719700133F9E7000006000000E4
S1131DD03600000007000000370000000F0000007C
S1131DE01B000000000000000000000000000000D4
S1131DF00000000000000000000000000C000100D2
S1131E0000000000000000002F00FF010008000295
S1131E1000000200000000000000000000020000BA
S1131E20F8B5C046F8BC08BC9E467047E500000003
S1131E30F8B5C046F8BC08BC9E467047BD0000001B
S1071E400008010091
S9030000FC
