S00D000068756237352E737265636C
S1130000281B002031010000B5010000B5010000EB
S113001000000000000000000000000000000000DC
S1130020000000000000000000000000B501000016
S11300300000000000000000B5010000B501000050
S1130040B5010000B5010000652D00008D280000F9
S1130050B5010000B5010000B5010000B5010000C4
S1130060B5010000E5340000B501000001350000D1
S1130070B5010000B5010000B5010000B5010000A4
S1130080B5010000B5010000B5010000B501000094
S1130090B5010000B5010000B5010000B501000084
S11300A0B5010000B5010000B5010000B501000074
S11300B0B5010000B5010000B501000010B5064C03
S11300C02378002B07D1054B002B02D0044800E015
S11300D000BF0123237010BD0400002000000000B5
S11300E058470000084B10B5002B03D007490848B7
S11300F000E000BF07480368002B00D110BD064B89
S1130100002BFBD09847F9E700000000080000200E
S113011058470000584700000000000080B500AFB9
S1130120024B9847C046BD4680BDC0463D0C00000A
S113013080B582B000AF164B7B60164B3B607A688B
S11301403B689A420CD007E03B681A1D3A607A6813
S1130150111D796012681A603A680F4B9A42F3D302
S11301600E4B3B6004E03B681A1D3A6000221A60A3
S11301703A680B4B9A42F6D30A4B7B600A4B7A6877
S1130180FF218A439A60094B9847094B9847FEE739
S11301905847000000000020040000200400002054
S11301A0280B00200000000000ED00E0794500006D
S11301B08140000080B500AFFEE780B584B000AF99
S11301C0F8607A600B23FB180A1C1A700B23FB18C7
S11301D01A78FB68203292007968D150C046BD4637
S11301E004B080BD80B582B000AF78607B685B6985
S11301F0802292001A437B685A61C046BD4602B011
S113020080BD80B582B000AF78607B685B69802276
S1130210D2001A437B685A61C046BD4602B080BD15
S113022080B582B000AF78607B68DB6902221A4334
S11302307B68DA61C046BD4602B080BD80B582B03D
S113024000AF78607B68DB6908221A437B68DA6157
S1130250C046BD4602B080BD80B584B000AFF86032
S11302607A600B23FB180A1C1A700B23FB181B78EB
S1130270FA68DB01D31808337A681A60C046BD46B1
S113028004B080BD80B584B000AFF8607A600B2301
S1130290FB180A1C1A700B23FB181B78FA68DB0185
S11302A0D31804337A681A60C046BD4604B080BDD2
S11302B080B584B000AFF8607A600B23FB180A1C89
S11302C01A700B23FB181B78FA68DB01D318183358
S11302D07A681A60C046BD4604B080BD80B584B05B
S11302E000AFF8607A600B23FB180A1C1A700B230A
S11302F0FB181B78FA68DB01D31814337A681A6088
S1130300C046BD4604B080BD90B585B000AF7860EE
S11303100C0010001900FB1C221C1A70BB1C021CD0
S11303201A707B1C0A1C1A70FB1C1978BB1C1A78E7
S11303300F23FB1878683024C90141188A18121950
S113034012781A700F23FB180F22BA1812780F2193
S11303508A431A707B1C1B780F221340D9B20F23D7
S1130360FB180F22BA1812780A431A70FB1C1A7869
S1130370BB1C1B7879683020D2018A18D3181B184B
S11303800F22BA1812781A70C046BD4605B090BD47
S113039090B585B000AF78600C0010001900FB1C0C
S11303A0221C1A70BB1C021C1A707B1C0A1C1A70BB
S11303B0FB1C1978BB1C1A780F23FB1878683024AF
S11303C0C90141188A18121912781A700F23FB18E0
S11303D00F22BA1812780F210A401A707B1C1B785E
S11303E01B01D9B20F23FB180F22BA1812780A4343
S11303F01A70FB1C1A78BB1C1B7879683020D20158
S11304008A18D3181B180F22BA1812781A70C0460B
S1130410BD4605B090BD90B585B000AF78600C00C6
S113042010001900FB1C221C1A70BB1C021C1A7041
S11304307B1C0A1C1A70FB1C1978BB1C1A780F232E
S1130440FB1878684024C90141188A1812191278D7
S11304501A700F23FB180F22BA18127801218A434D
S11304601A707B1C19780F23FB180F22BA18127804
S11304700A431A70FB1C1A78BB1C1B78796840204D
S1130480D2018A18D3181B180F22BA1812781A70BE
S1130490C046BD4605B090BDB0B582B000AF78602F
S11304A008001100FB1C021C1A70BB1C0A1C1A70E9
S11304B0FB1C1A78BB1C1B78F91C0878B91C09783A
S11304C07C684025C0012018411849190978C9B22F
S11304D004200143CCB279684020D2018A18D31891
S11304E01B18221C1A70C046BD4602B0B0BDB0B580
S11304F082B000AF786008001100FB1C021C1A7067
S1130500BB1C0A1C1A70FB1C1A78BB1C1B78F91C38
S11305100878B91C09787C684025C0012018411866
S113052049190978C9B204208143CCB279684020C2
S1130530D2018A18D3181B18221C1A70C046BD4653
S113054002B0B0BD80B584B000AFF8607A600B2310
S1130550FB180A1C1A700B23FB181B78FA68DB01C2
S1130560D31828337A681A60C046BD4604B080BDEB
S113057080B582B000AF39601100FB1D021C1A70F7
S1130580BB1D0A1C1A70BB1D1B78012B25D0022B26
S113059043D0002B63D13A68FB1D1978C023DB05D7
S11305A01800344B98473B681B041B0C8022D2056F
S11305B01A43FB1D19788223DB0518002E4B98473C
S11305C03B681B0CC02212061A43FB1D19788223B8
S11305D0DB051800284B984747E03A68FB1D19785B
S11305E0C023DB051800234B98473B681B041B0CF6
S11305F0224A1A43FB1D19788223DB0518001E4B7F
S113060098473B681B0C1E4A1A43FB1D197882232A
S1130610DB051800184B984727E03A68FB1D19784A
S1130620C023DB051800174B98473B681B041B0CC1
S11306308022D2051A43FB1D19788223DB0518009A
S11306400D4B98473B681B0CC02212061A43FB1D36
S113065019788223DB051800074B984705E00A4BFD
S1130660462219000020094B9847C046BD4602B0F7
S113067080BDC04685020000450500000000024020
S1130680000002C059020000E4450000C11E000041
S113069080B582B000AF39601100FB1D021C1A70D6
S11306A0BB1D0A1C1A70BB1D1B78002B08D03A68AE
S11306B0FB1D1978C023DB051800074B984707E09A
S11306C03A68FB1D1978C023DB051800034B9847D3
S11306D0C046BD4602B080BDB1020000DD0200008C
S11306E090B583B000AF040008001100FB1D221C6C
S11306F01A70BB1D021C1A707B1D0A1C1A707B1D0C
S11307001B78012B0DD0022B2BD0002B49D1BB1D04
S11307101A78FB1D19788223DB051800264B9847AD
S113072046E0BB1D1B7801229A40FB1D1978C023AB
S1130730DB051800214B9847BB1D1A78FB1D19785F
S11307408223DB0518001E4B9847BB1D1B78012232
S11307509A40FB1D1978C023DB051800194B9847F4
S113076026E0BB1D1B7801229A40FB1D1978C0238B
S1130770DB051800114B9847BB1D1A78FB1D19782F
S11307808223DB0518000E4B9847BB1D1B78012202
S11307909A40FB1D1978C023DB0518000A4B9847C3
S11307A006E00A4B892219000020094B9847C046ED
S11307B0C046BD4603B090BDEF04000085020000B2
S11307C099040000B1020000DD020000E4450000CD
S11307D0C11E000090B585B000AF786039607B68B9
S11307E05A090F23FB181A707B68DAB20E23FB1820
S11307F01F210A401A703B6801330BD10E23FB18EA
S11308001A780F23FB1819788223D80500231B4C70
S1130810A0472FE00E23FB181A780F23FB18197832
S11308208223D8050123154CA0470E23FB181B78FF
S1130830012213400FD00E23FB181B785B08DAB299
S11308403B68DCB20F23FB1819788223D8052300F8
S11308500B4CA0470EE00E23FB181B785B08DAB2A2
S11308603B68DCB20F23FB1819788223D8052300D8
S1130870044CA047C046BD4605B090BD1704000017
S1130880910300000903000080B582B000AF0200AC
S1130890FB1D1A70BB1D0A1C1A70FB1D1B785B091B
S11308A0D8B2FB1D1B781F221340D9B2BB1D1B7885
S11308B01A00034B9847C046BD4602B080BDC046EF
S11308C0E106000080B582B000AF786039603A6814
S11308D07B6811001800034B9847C046BD4602B020
S11308E080BDC046D507000080B582B000AF0200CD
S11308F0FB1D1A70BB1D0A1C1A70FB1D1B785B09BB
S1130900D8B2FB1D1B781F22134001229A4011000C
S1130910BB1D1B781A00034B9847C046BD4602B066
S113092080BDC0467105000080B582B000AF0200F2
S1130930FB1D1A70BB1D0A1C1A70FB1D1B785B097A
S1130940D8B2FB1D1B781F22134001229A401100CC
S1130950BB1D1B781A00034B9847C046BD4602B026
S113096080BDC0469106000080B500AF024B984799
S1130970C046BD4680BDC0467D21000080B500AFA5
S11309801C4B4022022118001B4B98471B4B18009C
S11309901B4B9847012136201A4B984700213620DB
S11309A0194B9847D8239B0319003620174B9847B7
S11309B001213720134B984700213720124B9847C9
S11309C0DC239B0319003720104B984701211B207F
S11309D00C4B984700211B200B4B9847D8235B03F3
S11309E019001B20094B9847094B9847C046BD4640
S11309F080BDC046001C0040BB0100000008004050
S1130A0003020000E908000089080000C50800008E
S1130A10490E000080B500AF074B1800074B9847FC
S1130A20074B984702000749074B1800074B9847A4
S1130A30C046BD4680BDC04600080040E501000038
S1130A40592D00000024004044020020D51C000061
S1130A5080B500AF01210820134B984700210820DE
S1130A60124B9847124B19000820124B984700214B
S1130A700A20114B984702210A200B4B98470F4B31
S1130A8019000A200B4B984700210B200A4B98476A
S1130A9002210B20044B9847094B19000B20054BEE
S1130AA09847C046BD4680BDE9080000890800009B
S1130AB002000800C50800002909000002000A001D
S1130AC002000B0080B500AF094B4022132118002F
S1130AD0084B9847064B432212211800054B9847B0
S1130AE0054B1800054B9847C046BD4680BDC0461F
S1130AF0001C0040BB01000000080040210200006F
S1130B0080B500AF064B9847064A074B1100180002
S1130B10064B9847064B9847C046BD4680BDC04625
S1130B20C50A000000040042FC010020ED1300008F
S1130B30510A000080B500AF01210C201A4B9847E0
S1130B4000210C20194B9847194B19000C20194B04
S1130B50984700210D20184B984702210D20124B75
S1130B609847164B19000D20124B984701210E206F
S1130B700D4B984700210E200C4B9847104B190041
S1130B800E200C4B984700210F200B4B9847022155
S1130B900F20054B98470B4B19000F20054B984726
S1130BA0C046BD4680BDC046E90800008908000073
S1130BB002000C00C50800002909000002000D0015
S1130BC002000E0002000F0080B500AF094B402266
S1130BD015211800084B9847064B43221221180090
S1130BE0054B9847054B1800054B9847C046BD4632
S1130BF080BDC046001C0040BB010000000800404E
S1130C003D020000B0B500AF064B9847064A0749BD
S1130C1007482023074CA047074B9847C046BD46CA
S1130C20B0BDC046C90B000020000020000C0042EB
S1130C30A4010020051A0000350B000080B500AFA8
S1130C40684B984700210020674B984702210020F9
S1130C50664B984701235B4219000020644B984778
S1130C6000210120604B9847022101205F4B9847E7
S1130C7001235B42190001205D4B984700210220AB
S1130C80594B984702210220584B984701235B4255
S1130C9019000220564B984700210320524B9847D5
S1130CA002210320514B984701235B421900032082
S1130CB04F4B9847002104204B4B984702210420B6
S1130CC04A4B984701235B4219000420484B98473C
S1130CD000210520444B984702210520434B9847A7
S1130CE001235B4219000520414B9847002106204F
S1130CF03D4B9847022106203C4B984701235B4219
S1130D00190006203A4B984700210920364B984792
S1130D1002210920354B984701235B421900092021
S1130D20334B9847002110202F4B98470221102065
S1130D302E4B984701235B42190010202C4B9847F7
S1130D4000211120284B984702211120274B984756
S1130D5001235B4219001120254B984700211220E2
S1130D60214B984702211220204B984701235B42D4
S1130D70190012201E4B9847002123201A4B984734
S1130D8002212320194B984701235B421900232099
S1130D90174B984701212A20134B984702212A20F8
S1130DA0124B984701235B4219002A20104B9847A5
S1130DB000212B200C4B984702212B200B4B9847EA
S1130DC001235B4219002B20094B9847094B984794
S1130DD0094B9847094B9847094B9847C046BD466D
S1130DE080BDC0466909000029090000E908000027
S1130DF0C50800007D090000150A0000010B000071
S1130E00050C000080B584B000AF7860EFF3108368
S1130E10FB60FA687B681A6072B6BFF35F8FC046E6
S1130E20BD4604B080BD80B584B000AF7860BFF328
S1130E305F8F7B681B68FB60FB6883F31088C04688
S1130E40BD4604B080BD000080B582B000AFBB1DBC
S1130E5000221A8013E0BB1D1B880F4ADB00D31845
S1130E600433012252421A60BB1D1A880A4BD20075
S1130E700021D150BB1D1A88BB1D01321A80BB1D35
S1130E801B88022BE7D9054B1800054B9847030034
S1130E901800BD4602B080BD400000207D10000057
S1130EA03925000080B586B000AF7860396017231B
S1130EB0FB1800221A701623FB1800221A7015233F
S1130EC0FB1800221A701DE01723FB181B78694ACF
S1130ED0DB00D31804331A687B689A420BD11723BA
S1130EE0FB181A78634BD2003968D1501523FB18CC
S1130EF001221A700BE01723FB181A781723FB182A
S1130F0001321A701723FB181B78022BDCD93B68BB
S1130F10002B11D11523FB181B7801225340DBB29F
S1130F20002B02D00D235B429FE07B680021180058
S1130F30514B9847030098E01523FB181B780122B6
S1130F405340DBB2002B00D17EE01723FB180022B4
S1130F501A7023E01723FB181A78464BD200D35893
S1130F60002B14D11723FB181A78424BD20039688E
S1130F70D1501723FB181B783E4ADB00D3180433E7
S1130F807A681A601523FB1801221A700BE01723E4
S1130F90FB181A781723FB1801321A701723FB1851
S1130FA01B78022BD6D945E01723FB181B78314A4E
S1130FB0DB00D31804331A681623FB181B782D4959
S1130FC0DB00CB1804331B689A422CD21623FB187F
S1130FD01B78284ADB00D31804331B68013322D062
S1130FE01623FB181B780C22BA182249DB00CB18F5
S1130FF003CB03C21623FB181B781722BA181278E6
S11310001C48DB001B49D200C3188A1803CA03C357
S11310101723FB181B78174ADB000C217918D31807
S11310200A0003CA03C31623FB181A781623FB18F5
S113103001321A701623FB181B78022B04D81723CD
S1131040FB181B78022BAFD91523FB181B78012240
S11310505340DBB2002B02D00D235B4205E07B68DA
S113106001211800044B984703001800BD4606B040
S113107080BDC046400000203D26000080B584B0FD
S113108000AF78600F23FB1800221A700E23FB18A0
S113109003221A7050E00E23FB181A780F23FB1852
S11310A01B78D3185A100D23FB181A700D23FB1844
S11310B01B78022B49D80D23FB181B78264ADB002A
S11310C0D31804331A687B689A420FD10D23FB1896
S11310D01A78214BD200D358002B38D00D23FB189B
S11310E01A781D4BD200D358984730E00D23FB18D3
S11310F01B78194ADB00D31804331A687B689A42B8
S11311000DD20F23FB180D22BA18127801321A706F
S11311100E23FB180E22BA1812781A700CE00E2354
S1131120FB180D22BA181278013A1A700F23FB1813
S11311300F22BA1812781A700E23FA180F23FB180C
S113114012781B789A42A6D202E0C04600E0C0465C
S1131150BD4604B080BDC0464000002080B584B0C8
S113116000AFF860B960BB1D1A80FB68002B04D087
S1131170BB68002B01D0012300E000231A1C0123CB
S11311801340DBB2084934221800084B9847FB6827
S11311901B68BA1D1288B968F868984703001800DC
S11311A0BD4604B080BDC04600460000C11E00001C
S11311B080B584B000AF78607B68043BFB607B68DB
S11311C01B79012B0FD8FB68996BFB685B6C581C6F
S11311D0FA685064CB181B789AB27B681100180027
S11311E0124B98470EE0FB68996BFB685B6C581CCC
S11311F0FA6850645B00CB181A887B6811001800E9
S11312000A4B9847FB685A6CFB681B6C9A4209D1DD
S11312107B6800211800064B98477B680121180061
S1131220044B9847C046BD4604B080BDAD390000AC
S1131230D53700001139000090B585B000AF786053
S11312407B68043BFB60FB68DB6B002B23D07B6873
S11312501B79012B0FD8FB68D96BFB685B6C581C9E
S1131260FA685064CC187B681800324B9847030026
S1131270DBB2237018E0FB68D96BFB685B6C581C0D
S1131280FA6850645B00CC187B681800294B9847B7
S11312900300238008E07B681800264B9847FB680E
S11312A05B6C5A1CFB685A64FB685A6CFB681B6CC9
S11312B09A4229D2FB689B6B002B1DD07B681B795B
S11312C0012B0CD8FB689A6BFB685B6CD3181B78FA
S11312D09AB27B6811001800174B984726E0FB6808
S11312E09A6BFB685B6C5B00D3181A887B681100EF
S11312F01800114B984719E07B68DA887B68110065
S113130018000D4B984711E07B68002118000B4B27
S11313109847FB682C2200219954FB681B6B002B17
S113132004D0FB681B6BFA6810009847C046BD46A2
S113133005B090BD693A0000AD3900007138000075
S113134080B584B000AF78607B68043BFB60FB68C9
S11313505A6CFB681B6C9A4211D37B6800211800FD
S1131360094B9847FB682C2200219954FB681B6B9E
S1131370002B04D0FB681B6BFA6810009847C0462A
S1131380BD4604B080BDC0461139000080B584B0AC
S113139000AF786039607B68043BFB607B680021A8
S11313A018000F4B98477B68002118000D4B984795
S11313B07B68002118000C4B9847FB682C22002105
S11313C09954FB685B6B002B05D0FB685B6B396839
S11313D0FA6810009847C046BD4604B080BDC046B8
S11313E0D5370000713800001139000080B584B091
S11313F000AF786039600023FB607B68002B04D069
S11314003B68002B01D0012300E000231A1C0123B8
S11314101340DBB21E49A52218001E4B98477B6877
S11314203A685A607B6804333A68110018001A4B12
S113143098470300FB60FB68002B23DB7B680433C5
S1131440164A00211800164B98477B680433154A46
S113145001211800124B98477B680433124A022179
S113146018000F4B98477B680433104A0321180077
S11314700B4B98477B680E4A9A627B680D4A5A6206
S1131480002300E0FB681800BD4604B080BDC046E0
S113149014460000C11E000081360000B111000096
S11314A0113B000039120000411300008D130000AD
S11314B0F11400007515000080B582B000AF7860AB
S11314C07B685A1E9341DBB20649C1221800064BC1
S11314D098477B6804331800044B9847C046BD46C0
S11314E002B080BD14460000C11E00002D3700006C
S11314F080B586B000AFF860B960BB1D1A80FB6888
S11315005A1E9341D8B20623FF331A00144B190014
S1131510144B9847FB68243B7B617B69BA68DA63A8
S11315207B6900229A63BB1D1A887B691A647B69F4
S113153000225A647B692C22102199547B6904335C
S113154001211800084B98477B690433074A1100AE
S11315501800074B984700231800BD4606B080BD0D
S113156014460000C11E000071380000FF01000095
S1131570AD39000080B586B000AFF860B960BB1D1E
S11315801A80FB685A1E9341D8B22823FF331A00ED
S1131590114B1900114B9847FB68243B7B617B6915
S11315A00022DA637B69BA689A63BB1D1A887B6977
S11315B01A647B6900225A647B692C221021995495
S11315C07B69043301211800054B98470023180058
S11315D0BD4606B080BDC04614460000C11E0000D2
S11315E0D537000080B584B000AFF8607A600B2373
S11315F0FB180A1C1A70FB68002B06D00B23FB187F
S11316001B78012B01D8012300E000231A1C0123BD
S11316101340D8B26423FF331A000F4B19000F4B49
S113162098470B23FB181B78002B03D1FB687A68BF
S11316301A630CE0FB687A685A63FB68181D7B68C0
S11316405A1E9341DBB21A000321054B9847C0464A
S1131650BD4604B080BDC04614460000C11E000053
S1131660AD3B000080B582B000AF786039607B6824
S1131670002B04D03B68002B01D0012300E00023A1
S11316801A1C01231340D8B27023FF331A00074BEE
S11316901900074B98477B6824331A003B681A608B
S11316A000231800BD4602B080BDC04614460000A9
S11316B0C11E000090B585B000AF78607B68043B24
S11316C0FB607B681B79012B12D9FB68DA6BFB6822
S11316D042215B5A591C8CB2F96842200C525B00BF
S11316E0D3181A887B6811001800184B984711E02A
S11316F0FB68DA6BFB6842215B5A591C8CB2F968AF
S113170042200C52D3181B789AB27B68110018003F
S11317100E4B9847FB6842229A5AFB6840215B5A59
S11317209A420FD37B6800211800094B9847FB6845
S11317305522995C012081439954FB681B6BFA681C
S113174010009847C046BD4605B090BD093A000058
S11317504538000080B584B000AF78607B68043BF6
S1131760FB607B681800144B984703001A00082399
S1131770FB181A80FB6844331A000823FB181B78F3
S1131780190010000D4B98477B681B79012B09D970
S1131790FB6844331A000823FB185B781900100017
S11317A0064B9847FB685B6BFA6810009847C04685
S11317B0BD4604B080BDC046BD3A0000B120000063
S11317C080B584B000AF78607B68043BFB60FB6845
S11317D0DB6AFA6810009847C046BD4604B080BD75
S11317E080B584B000AF786039607B68043BFB60EF
S11317F07B68002118000E4B98477B680021180075
S11318000C4B98477B68002118000B4B9847FB68EA
S11318105522995C012081439954FB689B6B39687C
S1131820FA6810009847C046BD4604B080BDC04663
S113183045380000E53800008139000080B586B0E5
S113184000AFF860B960BB1D1A80FB685A1E934153
S1131850DBB2224988221800214B9847BB1D1B8804
S1131860002B01D1002335E0FB68243B7B6110236E
S1131870FB1818001B4B98477B6955229B5C01227F
S11318801340DBB2002B07D01023FB181800164BB3
S1131890984704235B421DE07B695522995C012033
S11318A0014399541023FB1818000F4B98477B6988
S11318B0BA68DA637B694222002199527B69BA1DB6
S11318C0402112885A527B69043301211800074BC6
S11318D0984700231800BD4606B080BD344600007A
S11318E0C11E0000050E0000270E00004538000050
S11318F080B58AB000AFF860B960BB1D1A80BB68C0
S1131900FB61FB685A1E9341DBB23549B6221800CD
S1131910344B9847BB1D1B88002B01D100235BE08F
S1131920FB68243B7B617B69443318002E4B98474A
S113193003007B627B6A002B01D100234CE01A2355
S1131940FB18BA1D12881A807B691B7A022B00D0FF
S113195007E01A23FA181A23FB181B88DB181380D4
S1131960C0461A23FB181A887B6A9A4203D21A23A8
S1131970FB181B887B62FB69002B12D100233B629E
S11319800AE07B6944331322BA1811001800174B7C
S113199098473B6A01333B623A6A7B6A9A42F0D3C6
S11319A012E000233B620BE07B6944331800FB69BF
S11319B05A1CFA6119000D4B98473B6A01333B628C
S11319C03A6A7B6A9A42EFD37B691B7A022B02D173
S11319D07B6A5B0800E07B6A1800BD460AB080BDE4
S11319E034460000C11E0000252100003D200000F7
S11319F080B582B000AF78603960C046BD4602B0A1
S1131A0080BD000080B586B000AFF860B9607A6030
S1131A101A00BB1C1A80FB68002B0CD0BB68002B7F
S1131A2009D07B68002B06D0BB1C00229B5E002BD8
S1131A3001D0012300E000231A1C01231340DBB270
S1131A403149FB221800314B9847FB684433180096
S1131A50BB1C00229A5E7B6819002D4B984703003B
S1131A607B617B69002B01DA7B6948E0FB68043306
S1131A70BA6811001800274B984703007B617B6903
S1131A80002B01DA7B693AE0FB680433224A002127
S1131A901800224B9847FB680433214A012118009F
S1131AA01E4B9847FB6804331E4A022118001B4B47
S1131AB09847FB6804331C4A03211800174B9847C6
S1131AC0FB685522995C022081439954FB68552296
S1131AD0995C012081439954FB68144A9A63FB681A
S1131AE0124ADA62FB68114A1A63FB680F4A5A63A6
S1131AF0FB680F4A9A62FB680E4A5A620023180078
S1131B00BD4606B080BDC04634460000C11E00007C
S1131B10C91F000009370000B51600007D3B000016
S1131B2055170000C1170000E1170000F11900006B
S1131B30F11800003D18000080B582B000AF786055
S1131B407B685A1E9341D8B292235A00154B190050
S1131B50154B98477B6855229B5C02221340DBB2ED
S1131B60002B19D17B6804331800104B9847031ECF
S1131B7014D17B685522995C0220014399547B68F7
S1131B800433012118000A4B98477B680433012170
S1131B901800084B984702E0C04600E0C046BD4626
S1131BA002B080BD34460000C11E00008137000031
S1131BB0E53800008139000080B586B000AFF860D8
S1131BC07A600B23FB180A1C1A707B68002B01D067
S1131BD07B6800E01B4B7B61FB685A1E9341D8B2C3
S1131BE0BA235A00184B1900184B98470B23FB18BB
S1131BF01B78012B0CD002DC002B05D01EE0022B3D
S1131C000AD0032B0CD019E0FB687A691A6315E03B
S1131C10FB687A695A6311E0FB687A69DA620DE05D
S1131C20FB687A699A63FB68181D7B685A1E9341A6
S1131C30DBB21A000321064B9847C046C046BD4696
S1131C4006B080BDF119000034460000C11E00003A
S1131C50093C000080B582B000AF786039607B68D1
S1131C60002B04D03B68002B01D0012300E00023AB
S1131C701A1C01231340D8B2CF235A00064B190073
S1131C80064B98477B6824331A003B681A6000238C
S1131C901800BD4602B080BD34460000C11E0000DD
S1131CA080B582B000AF78607B681B681800BD46C1
S1131CB002B080BD80B582B000AF78607B68002B35
S1131CC002D07B681B6800E000231800BD4602B008
S1131CD080BD000080B584B000AFF860B9607A6060
S1131CE0FB68002B04D0BB68002B01D0012300E06B
S1131CF000231A1C01231340DBB20B493B221800BA
S1131D000A4B9847FB68BA6811001800084B9847BB
S1131D10FB6800221A61FB68064A1A600023180057
S1131D20BD4604B080BDC04654460000C11E00003C
S1131D30712C0000FD1D000080B588B000AFF86074
S1131D40B9607A600023BB61FB681800274B984791
S1131D5003003B613B69002B06D1BA68FB681100A4
S1131D601800234B98473DE03B69FB6124E0FB6985
S1131D705A687B689A4208D8FB699A68FB69596873
S1131D807B68CB1AD3187B6109E0FB699A68FB690D
S1131D905B68D2187B685B42D31801337B61BB68F4
S1131DA09A687B699A420BD9FB69BB61FB6918008D
S1131DB0104B98470300FB61FB69002BD7D100E06F
S1131DC0C046FA693B699A4206D1BA68FB681100B9
S1131DD01800074B984705E0BA68BB691100180062
S1131DE0054B9847BD4608B080BDC046A11C000005
S1131DF0211F0000B51C0000791F000080B586B0CB
S1131E0000AF78607B683B613B6914331800294B51
S1131E10984703007B613B691B695A1C3B691A6143
S1131E203B691B69FB603B691B7EDBB21A00012323
S1131E30134006D13B691B7EDBB21A000223134018
S1131E4029D03B691B7EDBB202221343DAB23B6921
S1131E501A762BE07B69BB603B6914331800164B80
S1131E609847BB681B7C012B09D1BB68FA685A6090
S1131E703B691433FA68B9681800104B98473B69FA
S1131E80143318000B4B984703007B61BB68DB6875
S1131E90BA68100098477B69002B07D07B695B68A0
S1131EA0FA68D21A7B699B689A42D3D2BD4606B0BF
S1131EB080BDC046A11C0000991F0000391D000010
S1131EC080B584B000AFB9607A600F23FB18021CA0
S1131ED01A700F23FB181B7801225340DBB2002B2E
S1131EE000D000BEC046BD4604B080BD80B584B0FD
S1131EF000AF786039607B681B68FB6008E0FA68B3
S1131F003B689A4201D1012306E0FB681B68FB6031
S1131F10FB68002BF3D100231800BD4604B080BD3C
S1131F2080B582B000AF786039603A687B68110090
S1131F3018000E4B984703005A1E9341DBB201224E
S1131F405340DBB21A1C01231340DBB20849392287
S1131F501800084B98477B681A683B681A607B68CE
S1131F603A681A60C046BD4602B080BDED1E00004E
S1131F706C460000C11E000080B582B000AF7860DE
S1131F8039607B681A683B681A607B683A681A6033
S1131F90C046BD4602B080BD80B584B000AF786055
S1131FA07B681B68002B09D07B681B68FB607B681F
S1131FB01B681A687B681A60FB6800E0002318003D
S1131FC0BD4604B080BD000080B584B000AFF860A9
S1131FD0B9607A60FB68002B07D0BB68002B04D083
S1131FE07B68002B01D0012300E000231A1C01238D
S1131FF01340DBB20F49282218000F4B98477B6827
S1132000013B7A68134002D00D235B420EE07B68EB
S11320105A1EFB685A60FB6800229A60FB689A6843
S1132020FB68DA60FB68BA681A6000231800BD46D2
S113203004B080BD8C460000C11E000080B582B093
S113204000AF786039607B68002B04D03B68002BBC
S113205001D0012300E000231A1C01231340DBB24A
S1132060114940221800114B98477B68DA687B6855
S11320709B689A4211D07B681A687B6899687B6870
S11320805B680B40D3181A783B681A707B689B68AE
S11320905A1C7B689A60002301E00A235B42180003
S11320A0BD4602B080BDC0468C460000C11E000083
S11320B080B582B000AF78600A00FB1C1A707B68A0
S11320C05A1E9341DBB2154951221800144B98470C
S11320D07B681A687B68D9687B685B680B40D31897
S11320E0FA1C12781A707B68DA687B689B68D21ACB
S11320F07B685B689A4206D97B68DA687B685B68B0
S1132100D21A7B689A607B68DB685A1C7B68DA6049
S113211000231800BD4602B080BDC0468C460000B6
S1132120C11E000080B582B000AF78607B685A1E83
S11321309341DBB2064967221800064B98477B6837
S1132140DA687B689B68D31A1800BD4602B080BD6C
S11321508C460000C11E000080B582B000AF7860DC
S113216039607B685A683B685B001E210B401A4348
S11321707B685A60C046BD4602B080BD80B500AFE2
S11321800A4B022118000A4B98470A4B98470A4BFE
S113219098470A4B98470A4B9847FF20094B9847A2
S11321A0094B9847C046BD4680BDC046004000412B
S11321B059210000C92900000D2B000051290000FD
S11321C0892B0000012900002122000080B584B081
S11321D000AF78600A00FB1C1A700F23FB187A68A2
S11321E012781A700F23FB180F22BA1812780221E2
S11321F08A431A70FB1C1B785B005AB20F23FB182E
S11322001B785BB213435AB20F23FB181A707B6816
S11322100F22BA1812781A70C046BD4604B080BDA9
S113222080B500AF9023DB0500211800024B9847CE
S1132230C046BD4680BDC046CD21000080B582B0F9
S113224000AF0200FB1D1A70FB1D1B787F2B09D801
S1132250064BFA1D127811001F220A4001219140F9
S11322600A001A60C046BD4602B080BD00E100E02D
S113227080B582B000AF0200FB1D1A70FB1D1B78F5
S11322807F2B0ED80949FB1D1B781A001F2313400E
S113229001229A40130080228B50BFF34F8FBFF36B
S11322A06F8FC046BD4602B080BDC04600E100E06D
S11322B080B582B000AF0200FB1D1A70FB1D1B78B5
S11322C07F2B0AD80749FB1D1B781A001F231340D4
S11322D001229A40C0235B00CA50C046BD4602B0EA
S11322E080BDC04600E100E080B582B000AF7860F8
S11322F03960C0467B685B683A681340FAD1C046CF
S1132300BD4602B080BD80B582B000AF7860396050
S11323107B685B683A6813405A1E9341DBB218002D
S1132320BD4602B080BD80B582B000AF78607B68E6
S11323305B691800BD4602B080BD80B582B000AFB5
S1132340786039607B683A685A61C046BD4602B01D
S113235080BD80B582B000AF786039607B683A6830
S11323601A61C046BD4602B080BD80B582B000AFE0
S1132370786039607B683A68DA60C046BD4602B06E
S113238080BD000080B582B000AF78607B681B78A8
S1132390DBB202221343DAB27B681A707B68032132
S11323A01800034B9847C046BD4602B080BDC046E6
S11323B0E922000080B582B000AF78607B681B78AA
S11323C0DBB202229343DAB27B681A707B68032182
S11323D01800034B9847C046BD4602B080BDC046B6
S11323E0E922000080B584B000AF78600A00FB1CCD
S11323F01A700F23FB187A6812781A700F23FB18CF
S11324000F22BA18127810218A431A70FB1C1B7809
S11324101B015AB20F23FB181B785BB213435AB249
S11324200F23FB181A707B680F22BA1812781A70DF
S11324307B6803211800034B9847C046BD4604B08F
S113244080BDC046E922000080B584B000AF78604A
S11324500A00FB1C1A707B68032118000B4B984779
S11324600F23FB187A6812781A700F23FB180F22B7
S1132470BA18F91C127809780A401A700F23FB184D
S11324801B781800BD4604B080BDC046E922000098
S113249080B582B000AF78600A00FB1C1A707B68BC
S11324A0FA1C12781A707B6803211800024B9847B3
S11324B0C046BD4602B080BDE922000080B582B0AE
S11324C000AF78600A00FB1C1A707B68FA1C127853
S11324D05A70C046BD4602B080BD80B582B000AF20
S11324E0786039607B683A689A60C046BD4602B03D
S11324F080BD80B582B000AF786039607B683A688F
S11325009A61C046BD4602B080BD80B584B000AFBC
S1132510F8607A600B23FB180A1C1A700B23FB1853
S11325201B78FA6806339B00D31804337A681A6060
S1132530C046BD4604B080BD80B582B000AF7860AF
S11325402E4B012118002E4B984703001A0001233B
S11325505340DBB2002B14D0284B02211800294B26
S11325609847031E08D0254B1800274B9847234B48
S113257002211800254B9847204B01211800244BB9
S113258098471E4B01211800204B98471B4B0021F4
S11325901800204B9847194B002118001E4B9847F0
S11325A0164B002118001D4B9847144B00211800AE
S11325B01B4B984788235B0510481A000021194BD0
S11325C09847C0239B050D481A000121154B9847D5
S11325D00A4B1800144B98470320144B98470320C8
S11325E0134B98470320134B9847134B7A681A6090
S11325F000231800BD4602B080BDC046002800403C
S11326000723000049240000B5230000E92200004C
S113261091240000E5230000BD240000DB24000019
S1132620F32400000B250000852300007122000024
S1132630B12200003D2200005800002080B584B083
S113264000AF78600A00FB1C1A700F23FB18FF22EE
S11326501A700E23FB1800221A701BE00E23FB18BD
S11326601B78284ADB00D31804331A687B689A4223
S113267009D10E23FB1819780F23FB18214AC9002E
S11326808A5C1A700BE00E23FB181A780E23FB18D1
S113269001321A700E23FB181B78022BDED90F238C
S11326A0FB181B78FF2B02D101235B4226E0FB1CA5
S11326B01B78002B0BD00F23FB181B7801229A40A8
S11326C01300114A19001000104B984715E00F230E
S11326D0FB181B7801229A4013000B4A19001000C2
S11326E00B4B98470F23FB181B7801229A401300C9
S11326F0054A19001000074B984700231800BD46EF
S113270004B080BDB0460000002800405323000000
S11327106B2300003B23000080B584B000AF534B13
S11327201800534B984703003B6001235B42BB6096
S11327303B684E4A190010004E4B98474E4B1B689D
S11327405A1E9341DBB24D49DA2218004C4B98478C
S113275084E03B6818004B4B98470300DBB2013B15
S1132760DAB20F23FB181A7066E0FB1D00221A7000
S1132770BB1D03221A703BE0BB1D1A78FB1D1B789E
S1132780D3185A107B1D1A707B1D1A783E4BD20049
S1132790D35C1A000F23FB181B785BB29A4208D152
S11327A07B1D1B78384ADB00D31804331B68BB60DD
S11327B024E07B1D1A78344BD200D35C1A000F231B
S11327C0FB181B785BB29A4209DAFB1D7A1D12785A
S11327D001321A70BB1DBA1D12781A7008E0BB1DB5
S11327E07A1D1278013A1A70FB1DFA1D12781A70BC
S11327F0BA1DFB1D12781B789A42BDD2BB68013307
S113280004D01D4B1B68BA68100098470F23FB18AF
S11328101B785BB201229A401300DB433A681340F1
S11328203B603B681800174B98470300DBB2013B41
S1132830DAB20F23FB181A700F23FB181B785BB254
S1132840013392D1094B1800094B984703003B60B0
S11328503B68064A19001000064B98473B68002B5A
S113286000D076E7C046BD4604B080BD00280040D5
S1132870272300003B23000058000020C846000026
S1132880C11E00005D450000B046000080B500AFE9
S1132890024B9847C046BD4680BDC046192700007C
S11328A080B582B000AF78603960C0467B685B68F1
S11328B03A681340FAD1C046BD4602B080BD00005C
S11328C080B584B000AFF8607A600B23FB180A1C53
S11328D01A700B23FB181A78FB6808329200796887
S11328E0D150054AFB6811001800044B9847C046B4
S11328F0BD4604B080BDC046FD070000A12800000D
S113290080B582B000AF78607B680122134005D0A7
S1132910044A054B00211800044B9847C046BD46A5
S113292002B080BD06010100001C0040C128000067
S113293080B582B000AF78600A00FB1C1A707B6817
S1132940FA1C12781A71C046BD4602B080BD000060
S113295080B582B000AF054B7B607B680121180015
S1132960034B9847C046BD4602B080BD00080040F6
S11329703129000080B582B000AF786039607B688F
S11329803A681A61C046BD4602B080BD80B584B0C5
S113299000AF78607B68DB69FB60FB681B0A1F2261
S11329A01340FB60FB681800BD4604B080BD80B5D1
S11329B082B000AF786039607B683A68DA61C046FB
S11329C0BD4602B080BD000080B582B000AF104BA0
S11329D07B60BB1C00221A807B6818000D4B984753
S11329E00200BB1C1A80BB1C1B881B021A00F823A4
S11329F05B011A407B6811001800074B98477B68FD
S1132A0001211800054B9847C046BD4602B080BD61
S1132A10001400408D290000AF2900007529000032
S1132A2080B582B000AF78603960C0467B689B692E
S1132A303A681340FAD1C046BD4602B080BD80B5A5
S1132A4082B000AF78607B68DB681B090122134009
S1132A505A1E9341DBB21800BD4602B080BD80B55A
S1132A6082B000AF78607B689B699B0801221340A9
S1132A705A1E9341DBB21800BD4602B080BD80B53A
S1132A8082B000AF78607B681B7DDBB2802252424B
S1132A901343DAB27B681A75C046BD4602B080BDE6
S1132AA080B582B000AF78600A00FB1C1A707B68A6
S1132AB0FA1C12781A75C046BD4602B080BD0000EB
S1132AC080B582B000AF78600A00FB1C1A707B6886
S1132AD0FA1C12785A757B6804211800024B984737
S1132AE0C046BD4602B080BD212A000080B582B038
S1132AF000AF78600A00FB1C1A707B68FA1C12781D
S1132B009A75C046BD4602B080BD000080B582B053
S1132B1000AF164B7B607B6802211800144B98476A
S1132B207B6800211800134B9847C0467B68180047
S1132B30114B9847031EF9D17B68072118000F4BEE
S1132B409847C0467B6818000D4B984703001A004D
S1132B5001235340DBB2002BF4D17B681800094BEE
S1132B609847C046BD4602B080BDC0460010004034
S1132B70A12A0000C12A00005F2A0000ED2A0000FB
S1132B803F2A00007F2A000080B582B000AF034BCB
S1132B907B60C046BD4602B080BDC0460010004008
S1132BA080B582B000AF78603960C0467B681B692D
S1132BB03A681340FAD1C046BD4602B080BD80B524
S1132BC082B000AF78607B68802252009A81C04650
S1132BD0BD4602B080BD80B582B000AF78607B682E
S1132BE09B899BB21800BD4602B080BD80B582B0FF
S1132BF000AF78607B68802252005A81C046BD468F
S1132C0002B080BD80B582B000AF78600A00BB1C02
S1132C101A807B68BA1C12881A80054A7B681100E6
S1132C201800044B9847C046BD4602B080BDC0465C
S1132C3003800000A12B000080B584B000AFF860D1
S1132C407A600B23FB180A1C1A700B23FB181A78E2
S1132C50FB68083292007968D150FB682021180083
S1132C60024B9847C046BD4604B080BDA12B00006E
S1132C7080B582B000AF786039607B685A1E93419A
S1132C80DBB2184930221800174B98477B683A6822
S1132C90DA607B68DB6801211800144B98477B6875
S1132CA0DB6801211800124B98477B68DB68114AE6
S1132CB0110018000D4B98477B68D8684823FF33F0
S1132CC01A0000210C4B98477B68DB6818000B4BFB
S1132CD098470B4B7A681A6000231800BD4602B06F
S1132CE080BDC046E0460000C11E0000052C000067
S1132CF0A12B000080800000392C0000ED2B000087
S1132D005C00002090B585B000AF78607B68DB681C
S1132D100E22BC1818000E4B9847030023800E2384
S1132D20FB181A8880235B0013400DD07B681B6856
S1132D30002B04D07B681B687A68100098477B6876
S1132D40DB681800034B9847C046BD4605B090BDEC
S1132D50D72B0000BF2B000080B500AF0023180064
S1132D60BD4680BD80B500AF034B1B681800034B04
S1132D709847C046BD4680BD5C000020052D00007C
S1132D8080B582B000AF0200FB1D1A70FB1D1B78DA
S1132D907F2B09D8064BFA1D127811001F220A4016
S1132DA0012191400A001A60C046BD4602B080BDB0
S1132DB000E100E080B582B000AF0200FB1D1A7094
S1132DC0FB1D1B787F2B0ED80949FB1D1B781A00AD
S1132DD01F23134001229A40130080228B50BFF31B
S1132DE04F8FBFF36F8FC046BD4602B080BDC04653
S1132DF000E100E080B582B000AF0200FB1D1A7054
S1132E00FB1D1B787F2B0AD80749FB1D1B781A0072
S1132E101F23134001229A40C0235B00CA50C046BE
S1132E20BD4602B080BDC04600E100E080B582B07E
S1132E3000AF78603960C0467B68DB693A6813404C
S1132E40FAD1C046BD4602B080BD80B582B000AFA5
S1132E50786039607B68DB693A6813405A1E934195
S1132E60DBB21800BD4602B080BD80B582B000AFB1
S1132E7078607B681B7EDBB21800BD4602B080BD63
S1132E8080B582B000AF78600A00FB1C1A707B68C2
S1132E90FA1C12781A76C046BD4602B080BD80B5D1
S1132EA082B000AF78607B6801229A75C046BD4647
S1132EB002B080BD80B582B000AF78607B6801222B
S1132EC01A75C046BD4602B080BD80B582B000AF61
S1132ED078607B6802229A75C046BD4602B080BD08
S1132EE080B582B000AF78607B6802221A75C04654
S1132EF0BD4602B080BD80B582B000AF78607B680B
S1132F0004229A75C046BD4602B080BD80B582B029
S1132F1000AF78607B6804221A75C046BD4602B0D3
S1132F2080BD80B582B000AF78600A00FB1C1A70C7
S1132F30FB1C1B7801225340DBB2002B03D07B68BF
S1132F4080221A7502E07B6880229A75C046BD46CD
S1132F5002B080BD80B582B000AF78607B689B7D95
S1132F60DBB21800BD4602B080BD000080B582B05F
S1132F7000AF78607B681B6802221A437B681A6082
S1132F807B6803211800034B9847C046BD4602B036
S1132F9080BDC0462D2E000080B582B000AF7860A1
S1132FA07B681B68022293431A007B681A607B6863
S1132FB003211800024B9847C046BD4602B080BDAD
S1132FC02D2E000080B584B000AF786039607B6836
S1132FD003211800064B98477B681B68FB60FB685D
S1132FE03A681340FB60FB681800BD4604B080BD1E
S1132FF02D2E000080B582B000AF786039607B6808
S11330003A681A607B6803211800034B9847C0464E
S1133010BD4602B080BDC0462D2E000080B582B0F2
S113302000AF786039607B683A685A607B68072132
S11330301800034B9847C046BD4602B080BDC04649
S11330402D2E000080B582B000AF78600A00FB1C12
S11330501A707B68FA1C12781A73C046BD4602B017
S113306080BD80B582B000AF786039607B683A6813
S11330705A62C046BD4602B080BD80B582B000AF82
S1133080786039607B683A689A62C046BD4602B08F
S113309080BD80B582B000AF78607B689B6A180001
S11330A0BD4602B080BD80B582B000AF78600A0032
S11330B0FB1C1A707B68FA1C302112785A54C046E3
S11330C0BD4602B080BD80B582B000AF78600A0012
S11330D0BB1C1A807B68BA1C12885A83C046BD4642
S11330E002B080BD80B582B000AF78607B68044ACE
S11330F0944663449B0ADBB21800BD4602B080BD0F
S113310000FCFFBD80B582B000AF786039607B6899
S1133110084A934202D1084B3A681A607B68074A0E
S1133120934202D1064B3A681A60C046BD4602B0CB
S113313080BDC0460004004274000020000C004220
S11331407800002080B582B000AF78607B681800FA
S1133150044B984703000933DBB21800BD4602B0A4
S113316080BDC046E530000080B582B000AF786015
S11331707B6801211800084B9847031E02D00423E2
S11331805B4204E07B681800044B98470023180056
S1133190BD4602B080BDC0464B2E00006D2F00001E
S11331A080B582B000AF78607B681800074B984701
S11331B07B681800064B984703005BB21800054B68
S11331C0984700231800BD4602B080BD6931000055
S11331D045310000812D000080B582B000AF7860D9
S11331E039607B68002B04D03B68002B01D001239D
S11331F000E000231A1C01231340DBB21F4A2049BC
S11332001800204B98473B681A78597809020A43FA
S1133210997809040A43DB781B0613431A001A4BF6
S11332201A407B6811001800184B98473B681A79BC
S1133230597909020A43997909040A43DB791B067F
S113324013431A00124B1340802292021A437B68E4
S1133250110018000F4B98473B681A7B7B681100DC
S113326018000D4B98473B685A7B7B681100180087
S11332700A4B9847C046BD4602B080BDF108000025
S1133280F8460000C11E0000FCFEFFFFF52F000001
S1133290BF1DFDFF1D30000045300000A7300000B9
S11332A080B582B000AF786039607B68002B04D0B1
S11332B03B68002B01D0012300E000231A1C0123EA
S11332C01340DBB2294A2A4918002A4B98473B6825
S11332D01A78597809020A43997809040A43DB7871
S11332E01B0613431A00244B1A407B681100180074
S11332F0224B98473B681A79597909020A4399790C
S113330009040A43DB791B0613431A001C4B1340C0
S11333101C4A1A437B68110018001B4B98473B68F2
S11333201A7A597A09020A43997A09040A43DB7A18
S11333301B0613431A007B6811001800134B9847AF
S11333403B685A7B7B6811001800114B9847C046B4
S113335001235A427B68110018000E4B9847031E44
S1133360F6D1C046BD4602B080BDC0460509000086
S1133370F8460000C11E0000FCFEFFFFF52F000010
S1133380BFDDFDFF400202001D300000633000007D
S1133390A73000004B2E000090B585B000AF7860D8
S11333A07B680E22BC181800184B98470300237042
S11333B00F23FB1800221A701EE00F23FB181A7843
S11333C0134913001B019B18CB1810331B780E22D2
S11333D0BA1812789A4208D10F23FB181A781300EE
S11333E01B019B180A4A9B180CE00F23FB181A7840
S11333F00F23FB1801321A700F23FB181B78012BC3
S1133400DBD900231800BD4605B090BDE5300000AF
S11334101447000090B585B000AF78607B681B68E6
S1133420FB600B23FC18FB6818002A4B9847030029
S11334302370FB681800284B9847030019000B23DE
S1133440FB180B22BA1812780A401A700B23FB18C7
S11334501B780122134005D07B689B687A681000B2
S1133460984733E00B23FB181B780422134005D044
S11334707B68DB687A681000984727E00B23FB1809
S11334801B78022213400AD0FB6802211800134B58
S113349098477B681B697A681000984716E00B23ED
S11334A0FB181B785BB2002B10DAFB6804211800B0
S11334B00B4B9847FB6880211800084B98477B68A2
S11334C05B69132251427A6810009847C046BD4692
S11334D005B090BD6B2E0000552F0000812E00001A
S11334E0C730000080B500AF034B1B681800034BC6
S11334F09847C046BD4680BD7400002015340000C6
S113350080B500AF034B1B681800034B9847C046B7
S1133510BD4680BD780000201534000080B584B01D
S113352000AF786039603B6818004A4B9847030045
S1133530FB607B68002B04D03B68002B01D0012387
S113354000E000231A1C01231340DBB2424A434922
S11335501800434B9847FB68002B02D10D235B42B4
S113356074E03B68012118003E4B984703001A00A1
S113357001235340DBB2002B26D0FB681A7859781C
S113358009020A43997809040A43DB781B061343AA
S11335901A001C231340BB603B6802211800324B05
S11335A09847031E08D03B681800304B98473B6887
S11335B0022118002E4B9847BB6801221A433B682E
S11335C0110018002B4B98473B6801211800284B29
S11335D098477B683A681A60FB681A785978090238
S11335E00A43997809040A43DB781B0613431A003B
S11335F01C231340082B06D1FA683B6811001800FD
S11336001D4B984705E0FA683B68110018001B4BF6
S11336109847FB681A79597909020A439979090488
S11336200A43DB791B0613431A000723134001D115
S1133630012200E002227B681A71FB689A7BDB7B23
S11336401B0213439AB27B68DA8000231800BD463C
S113365004B080BD993300004B090000F846000017
S1133660C11E00004B2E0000C52F0000992F000042
S11336702D2E0000F52F0000A1320000D9310000EA
S113368080B584B000AF786039607B68FB603A68CD
S11336907B6811001800174B98470300BB60BB6898
S11336A0002B01DABB6821E07A683B68110018003E
S11336B0114B9847FB6800221A61FB680022DA600C
S11336C0FB6800229A603B6818000C4B9847030083
S11336D05BB218000A4B98473B681800074B9847A1
S11336E003005BB21800074B984700231800BD463F
S11336F004B080BD1D3500000531000045310000D7
S1133700B52D0000F52D000080B582B000AF7860C3
S113371039603A687B6811001800034B984703002E
S11337201800BD4602B080BD8136000080B582B06D
S113373000AF78607B68002B05D07B681B68002B8A
S113374001D0012300E000231A1C01231340DBB243
S1133750074A08491800084B98477B681B681800FB
S1133760064B984703001800BD4602B080BDC04612
S1133770B4090000F8460000C11E0000A131000099
S113378080B582B000AF78607B68002B05D07B6881
S11337901B68002B01D0012300E000231A1C012325
S11337A01340DBB2074A08491800084B98477B6866
S11337B01B681800064B984703001800BD4602B06A
S11337C080BDC046BB090000F8460000C11E0000D1
S11337D0A131000080B584B000AF78600A00FB1C02
S11337E01A707B681B68FB607B68002B04D0FB6845
S11337F0002B01D0012300E000231A1C01231340F5
S1133800DBB20B4A0B4918000B4B9847FB1C1B7887
S1133810002B04D0FB681800084B984703E0FB68B2
S11338201800074B984700231800BD4604B080BD1C
S1133830D70A0000F8460000C11E00009F2E0000B9
S1133840B52E000080B582B000AF78600A00FB1C82
S11338501A70FB1C1A787B6811001800034B9847F8
S113386003001800BD4602B080BDC046D537000035
S113387080B584B000AF78600A00FB1C1A707B68C6
S11338801B68FB607B685A1E9341DBB20F4A1049E8
S11338901800104B9847FB685A1E9341DBB20E4A3E
S11338A00B4918000B4B9847FB1C1B78002B04D0CA
S11338B0FB681800094B984703E0FB681800084BA5
S11338C0984700231800BD4604B080BDEB0A0000F1
S11338D0F8460000C11E0000EC0A0000F72E0000AC
S11338E00D2F000080B582B000AF78600A00FB1C89
S11338F01A70FB1C1A787B6811001800034B984758
S113390003001800BD4602B080BDC04671380000F7
S113391080B582B000AF78600A00FB1C1A707B6827
S1133920002B05D07B681B68002B01D0012300E02D
S113393000231A1C01231340DBB20C4A0C49180063
S11339400C4B9847FB1C1B78002B05D07B681B682D
S11339501800094B984704E07B681B681800074B64
S1133960984700231800BD4602B080BDFE0A00003F
S1133970F8460000C11E0000CB2E0000E12E00001E
S113398080B582B000AF78600A00FB1C1A70FB1C83
S11339901A787B6811001800034B9847030018003D
S11339A0BD4602B080BDC0461139000080B582B06A
S11339B000AF78600A00BB1C1A807B68002B05D01E
S11339C07B681B68002B01D0012300E000231A1C34
S11339D001231340D8B2B1231A01084B1900084B34
S11339E098477B681A68BB1C1B8819001000054B9C
S11339F0984700231800BD4602B080BDF846000079
S1133A00C11E00007B30000080B582B000AF78603A
S1133A100A00BB1C1A807B68002B05D07B681B68DE
S1133A20002B01D0012300E000231A1C01231340C2
S1133A30DBB2094A09491800094B98477B681A68A0
S1133A40BB1C1B8819001000064B98470023180064
S1133A50BD4602B080BDC046190B0000F846000008
S1133A60C11E00007B30000080B582B000AF7860DA
S1133A707B68002B05D07B681B68002B01D00123D9
S1133A8000E000231A1C01231340DBB2074A084953
S1133A901800084B98477B681B681800064B98472A
S1133AA003009BB21800BD4602B080BD2B0B000082
S1133AB0F8460000C11E00009330000080B582B0BB
S1133AC000AF78607B68002B05D07B681B68002BF7
S1133AD001D0012300E000231A1C01231340DBB2B0
S1133AE0074A08491800084B98477B681B68180068
S1133AF0064B984703009BB21800BD4602B080BD38
S1133B00320B0000F8460000C11E00009330000094
S1133B1080B586B000AFF8607A600B23FB180A1CEE
S1133B201A70FB687B61FB68002B06D00B23FB1823
S1133B301B78032B01D8012300E000231A1C012366
S1133B401340DBB20A4A0B4918000B4B98477B69B8
S1133B5008333B610B23FB181B789B003A69D3188D
S1133B607A681A6000231800BD4606B080BDC046BE
S1133B70440B0000F8460000C11E000080B584B06C
S1133B8000AFF8607A600B23FB180A1C1A707A687D
S1133B900B23FB181978FB681800034B98470300A4
S1133BA01800BD4604B080BD113B000080B582B052
S1133BB000AF786008001100FB1C021C1A70BB1CCB
S1133BC00A1C1A707B685A1E9341DBB20A4A0B49DD
S1133BD018000B4B9847FB1C1B78032B07D17B6801
S1133BE01A68BB1C1B7819001000064B9847C04686
S1133BF0BD4602B080BDC046850B0000F8460000FB
S1133C00C11E0000232F000080B582B000AF786091
S1133C1008001100FB1C021C1A70BB1C0A1C1A7041
S1133C20BB1C1A78FB1C19787B681800024B984758
S1133C30C046BD4602B080BDAD3B000080B582B039
S1133C4000AF78600A00FB1C1A70FB1C1A787B68B2
S1133C50D201D3581800BD4602B080BD80B584B0EF
S1133C6000AFF8607A600B23FB180A1C1A700B2350
S1133C70FB181B78FA68DB01D31818337A681A60CA
S1133C80C046BD4604B080BD80B582B000AF786048
S1133C900A00FB1C1A70FB1C1B787A68DB01D31822
S1133CA010331B681800BD4602B080BD80B584B0D7
S1133CB000AFF8607A600B23FB180A1C1A700B2300
S1133CC0FB181B78FA68DB01D31814337A681A607E
S1133CD0C046BD4604B080BD80B582B000AF7860F8
S1133CE00A00FB1C1A70FB1C1B787A68DB01D318D2
S1133CF020331B681800BD4602B080BD80B582B079
S1133D0000AF39601100FB1D021C1A70BB1D0A1C98
S1133D101A70BB1D1B78002B08D03A68FB1D19785C
S1133D20C023DB051800074B984707E03A68FB1DE2
S1133D301978C023DB051800034B9847C046BD46DD
S1133D4002B080BD5D3C0000AD3C000080B586B093
S1133D5000AF0200FB1D1A700C23FB181800184B4F
S1133D609847FB1D1A78C023DB0511001800154B7A
S1133D70984703007B61FB1D1A788223DB05110041
S1133D801800114B984702007B69DB4313403B61E9
S1133D90FB1D1A78C023DB05110018000B4B984754
S1133DA002007B6913403A6913433B610C23FB18FF
S1133DB01800074B98473B691800BD4606B080BD04
S1133DC0050E00003D3C0000D93C0000893C000089
S1133DD0270E000080B582B000AF0200FB1D1A70F0
S1133DE0BB1D0A1C1A70FB1D1B785B09D8B2FB1D96
S1133DF01B781F22134001229A401100BB1D1B781F
S1133E001A00034B9847C046BD4602B080BDC04669
S1133E10FD3C000080B582B000AF0200FB1D1A70AB
S1133E20FB1D1B785B09DBB21800094B98470100A6
S1133E30FB1D1B781F22134001229A4013000B40E4
S1133E405A1E9341DBB21800BD4602B080BDC04685
S1133E504D3D000080B500AF0A4B40220021180000
S1133E60094B9847094B402200211800064B9847FC
S1133E7080231A01064B00211800034B9847C046C3
S1133E80BD4680BDA8020020D34500006402002086
S1133E90E802002080B500AFC046BD4680BD0000EA
S1133EA080B500AF1B20044B984703001A00034B56
S1133EB01A70C046BD4680BD153E000002000020B9
S1133EC080B582B000AF786001210920024B984789
S1133ED0C046BD4602B080BDD53D000080B582B06D
S1133EE000AF7860164A174B1000190040231A00DF
S1133EF0154B98471549164B1B88403B1A00114B2C
S1133F001800114B9847124B1B88403B1A000D4B6D
S1133F10D218104B1000190040231A000A4B98477E
S1133F20002109200C4B98470C4B1B680449402284
S1133F3018000B4B9847C046BD4602B080BDC04632
S1133F4064020020E8020020C1450000280300208C
S1133F5000000020A8020020D53D000060020020DF
S1133F605D11000090B583B000AFBB1C00221A8025
S1133F703B0000221A80BB1D00221A807B1D0122F7
S1133F801A7065E03B1D00221A7058E03B1D1B7837
S1133F9099B27B1D1B78344AD35C9BB2DB009AB286
S1133FA0BB1C8A181A803B00BA1C128880210901A4
S1133FB08C4662441A80BB1DBA1C12881A8017E012
S1133FC0C023DB053F225A61C023DB05BA1D1288DA
S1133FD026498A5C9A61C023DB0540229A61C0238A
S1133FE0DB0540225A61BB1DBA1D128840321A807B
S1133FF0BA1D3B0012881B889A42E1D31C4B1B78E4
S1134000DBB2002B16D0C023DB059821C02212019D
S11340105A50C023DB05E022D2025A61C023DB05DB
S11340203A1D127812049A61C023DB059421C02240
S113403012015A503B1D1A783B1D01321A703B1D68
S11340401B78072BA2D97B1D1A787B1D01321A70AD
S11340507B1D1A78074B10009847074C0022074B2A
S1134060A047031E8ED189E7A4000020E8020020A7
S1134070020000209D4400006142000000E06F4007
S113408090B583B000AF504B9847FB1D00221A70C7
S113409059E0FB1D1B784D4A0021D154FB1D1B78B0
S11340A00122134004D0FB1D1B78484A0021D1543F
S11340B0FB1D1B780222134004D0FB1D1B78434ACE
S11340C00121D154FB1D1B780422134004D0FB1D95
S11340D01B783E4A0221D154FB1D1B780822134051
S11340E004D0FB1D1B78394A0321D154FB1D1B78D6
S11340F01022134004D0FB1D1B78344A0421D154F0
S1134100FB1D1B782022134004D0FB1D1B782F4A73
S11341100521D154FB1D1B784022134004D0FB1D04
S11341201B782A4A0621D154FB1D1B785BB2002B55
S113413004DAFB1D1B78254A0721D154FB1D1A788C
S1134140FB1D01321A70FB1D1B78FF2BA1D1204BE4
S1134150190036201F4B98471F4B190037201D4B61
S113416098471E4B19001B201A4B98471C4A1D4B9D
S1134170110018001C4B98471C4A1A4B00211800C8
S11341801B4B9847174B18001A4B98471A4A1B4960
S11341901B4840231B4CA0471B4A194B1100180015
S11341A01A4B98471A4A164B02211800194B984784
S11341B0134B1800184B9847184B984700231800C6
S11341C0BD4603B090BDC0461D010000A400002000
S11341D0553E0000A50E0000953E0000A13E0000E3
S11341E060020020FC01002065160000C13E0000B2
S11341F0E5150000B9140000A8020020000C0042DC
S1134200A4010020051A0000A4020020551C00008F
S1134210DD3E0000B91B0000391B0000653F0000B3
S11342208446101C62468C46191C634600E0C04656
S11342301FB500F0D1F8002801D40021C8421FBDE9
S113424010B500F02BF84042013010BD10B500F05D
S1134250C3F8002801DB002010BD012010BDC046BA
S113426010B500F0B9F8002801DD002010BD0120D0
S113427010BDC04610B500F04BF8002801DC00204A
S113428010BD012010BDC04610B500F041F8002853
S113429001DA002010BD012010BDC046F0B54F4624
S11342A04646D6465C00C0B51F03DB0F9A46174B43
S11342B00E034D0084468046360B6D0DC90F9146A2
S11342C03F0B640D01209D4208D09C4201D0A542C1
S11342D00BD01CBC90469946A246F0BD63463343BE
S11342E0F7D1AC42F5D13A43F3D10120BE42F0D12B
S11342F0C845EED1514507D0002DEAD163461E438F
S11343003000461EB041E4E70020E2E7FF0700006A
S1134310F0B54546DE4657464E46E0B51F033D0B15
S11343202C4F0E034C00AB465D008446360B640DE7
S1134330C90F90466D0DDB0FBC422AD0254FBD42FC
S11343402DD0002C0FD130430700814678427841AC
S1134350C0B2002D17D15F463A4314D14B4600201A
S1134360002B0AD006E0002D02D15846024301D0AA
S1134370994218D04842012108433CBC90469946D2
S1134380A246AB46F0BD0028F2D00120013B184301
S1134390F3E737000743D1D002204042EDE75F4600
S11343A01743CED0F8E7AC42E4DC03DA481E01211F
S11343B00843E2E75E45DDD806D000205E45DCD246
S11343C00123481E1843D8E7C445D3D80020C44568
S11343D0F6D3D2E7FF070000F0B54E464546DE4669
S11343E057465C00E0B51F03DB0F99462A4B0E03CA
S11343F04D00C90F8446360B6D0D8B4690463F0B1E
S1134400640D9D4220D0244B9C4222D0002D12D119
S1134410304343424341DBB2002C1FD0002B0CD06D
S11344204B460120013B034318003CBC904699468F
S1134430A246AB46F0BD002C16D0CB4517D05B4648
S1134440594201230B43EFE7310002230143EBD12F
S1134450D9E7390002231143E6D1D7E73A43DDD146
S113446000230028E0D0EAE73A43E6D1E7E7A54293
S1134470E5DC05DBBE42E2D807D00023BE42D3D23E
S11344805946012301390B43CEE7C445D7D800234D
S1134490C445F5D3C8E7C046FF07000070B500283F
S11344A030D0C317C4185C40C50F200000F038F8A2
S11344B0174B184A1B1AD21A1F2A18DD164AD21A89
S11344C09440002224035B05240B5B0D00211000A3
S11344D024030A0D240B12052243104C1B05224011
S11344E013435B00ED075B082B43190070BD2100EB
S11344F091400A000B21081AC4405B052403240BD5
S11345005B0DE3E70025002300240022DEE7C0461C
S11345101E0400003304000013040000FFFF0F809A
S11345201C2101231B04984201D3000C10391B0ADF
S1134530984201D3000A08391B09984201D30009A3
S1134540043902A2105C40187047C04604030202FA
S1134550010101010000000000000000002310B56B
S1134560984207D01A00012104001441531C1A0078
S11345700C42F9D0180010BD70B500260C4D0D4C3E
S1134580641BA410A64209D1002600F0D5F80A4DF8
S11345900A4C641BA410A64205D170BDB300EB58AD
S11345A098470136EEE7B300EB5898470136F2E737
S11345B044470000444700004447000048470000C7
S11345C0002310B59A4200D110BDCC5CC454013311
S11345D0F8E703008218934200D170471970013341
S11345E0F9E700002E2E2F68706C2F706F72742FF5
S11345F068706C5F6770696F5F626173652E6800D5
S11346002E2E2F68616C2F7372632F68616C5F6943
S11346106F2E63002E2E2F68616C2F7372632F68C8
S1134620616C5F7370695F6D5F6173796E632E6334
S1134630000000002E2E2F68616C2F7372632F68A8
S1134640616C5F7370695F735F6173796E632E630E
S1134650000000002E2E2F68616C2F7372632F6888
S1134660616C5F74696D65722E6300002E2E2F6875
S1134670616C2F7574696C732F7372632F75746911
S11346806C735F6C6973742E630000002E2E2F68A8
S1134690616C2F7574696C732F7372632F757469F1
S11346A06C735F72696E676275666665722E63000D
S11346B0060000003600000007000000370000007C
S11346C00F0000001B0000002E2E2F68706C2F6559
S11346D069632F68706C5F6569632E630000000076
S11346E02E2E2F68706C2F7274632F68706C5F723B
S11346F074632E63000000002E2E2F68706C2F73DD
S11347006572636F6D2F68706C5F736572636F6D34
S11347102E6300000C0001000000000000000000F7
S11347202F00FF010008000200000200000000004A
S11347300000000000020000F8B5C046F8BC08BC48
S11347409E467047E5000000F8B5C046F8BC08BCBA
S10B47509E467047BD00000005
S10747580008010050
S9030000FC
